{"abi":[{"type":"constructor","inputs":[{"name":"_artistWallet","type":"address","internalType":"address payable"},{"name":"_platformWallet","type":"address","internalType":"address payable"},{"name":"_initialOwner","type":"address","internalType":"address"}],"stateMutability":"nonpayable"},{"type":"function","name":"approve","inputs":[{"name":"to","type":"address","internalType":"address"},{"name":"tokenId","type":"uint256","internalType":"uint256"}],"outputs":[],"stateMutability":"nonpayable"},{"type":"function","name":"artistWallet","inputs":[],"outputs":[{"name":"","type":"address","internalType":"address payable"}],"stateMutability":"view"},{"type":"function","name":"balanceOf","inputs":[{"name":"owner","type":"address","internalType":"address"}],"outputs":[{"name":"","type":"uint256","internalType":"uint256"}],"stateMutability":"view"},{"type":"function","name":"baseURI","inputs":[],"outputs":[{"name":"","type":"string","internalType":"string"}],"stateMutability":"view"},{"type":"function","name":"getApproved","inputs":[{"name":"tokenId","type":"uint256","internalType":"uint256"}],"outputs":[{"name":"","type":"address","internalType":"address"}],"stateMutability":"view"},{"type":"function","name":"isApprovedForAll","inputs":[{"name":"owner","type":"address","internalType":"address"},{"name":"operator","type":"address","internalType":"address"}],"outputs":[{"name":"","type":"bool","internalType":"bool"}],"stateMutability":"view"},{"type":"function","name":"mint","inputs":[{"name":"_artistPercentage","type":"uint8","internalType":"uint8"}],"outputs":[],"stateMutability":"payable"},{"type":"function","name":"name","inputs":[],"outputs":[{"name":"","type":"string","internalType":"string"}],"stateMutability":"view"},{"type":"function","name":"owner","inputs":[],"outputs":[{"name":"","type":"address","internalType":"address"}],"stateMutability":"view"},{"type":"function","name":"ownerOf","inputs":[{"name":"tokenId","type":"uint256","internalType":"uint256"}],"outputs":[{"name":"","type":"address","internalType":"address"}],"stateMutability":"view"},{"type":"function","name":"platformWallet","inputs":[],"outputs":[{"name":"","type":"address","internalType":"address payable"}],"stateMutability":"view"},{"type":"function","name":"renounceOwnership","inputs":[],"outputs":[],"stateMutability":"nonpayable"},{"type":"function","name":"safeTransferFrom","inputs":[{"name":"from","type":"address","internalType":"address"},{"name":"to","type":"address","internalType":"address"},{"name":"tokenId","type":"uint256","internalType":"uint256"}],"outputs":[],"stateMutability":"nonpayable"},{"type":"function","name":"safeTransferFrom","inputs":[{"name":"from","type":"address","internalType":"address"},{"name":"to","type":"address","internalType":"address"},{"name":"tokenId","type":"uint256","internalType":"uint256"},{"name":"data","type":"bytes","internalType":"bytes"}],"outputs":[],"stateMutability":"nonpayable"},{"type":"function","name":"setApprovalForAll","inputs":[{"name":"operator","type":"address","internalType":"address"},{"name":"approved","type":"bool","internalType":"bool"}],"outputs":[],"stateMutability":"nonpayable"},{"type":"function","name":"setBaseURI","inputs":[{"name":"_newBaseURI","type":"string","internalType":"string"}],"outputs":[],"stateMutability":"nonpayable"},{"type":"function","name":"supportsInterface","inputs":[{"name":"interfaceId","type":"bytes4","internalType":"bytes4"}],"outputs":[{"name":"","type":"bool","internalType":"bool"}],"stateMutability":"view"},{"type":"function","name":"symbol","inputs":[],"outputs":[{"name":"","type":"string","internalType":"string"}],"stateMutability":"view"},{"type":"function","name":"tokenURI","inputs":[{"name":"tokenId","type":"uint256","internalType":"uint256"}],"outputs":[{"name":"","type":"string","internalType":"string"}],"stateMutability":"view"},{"type":"function","name":"transferFrom","inputs":[{"name":"from","type":"address","internalType":"address"},{"name":"to","type":"address","internalType":"address"},{"name":"tokenId","type":"uint256","internalType":"uint256"}],"outputs":[],"stateMutability":"nonpayable"},{"type":"function","name":"transferOwnership","inputs":[{"name":"newOwner","type":"address","internalType":"address"}],"outputs":[],"stateMutability":"nonpayable"},{"type":"event","name":"Approval","inputs":[{"name":"owner","type":"address","indexed":true,"internalType":"address"},{"name":"approved","type":"address","indexed":true,"internalType":"address"},{"name":"tokenId","type":"uint256","indexed":true,"internalType":"uint256"}],"anonymous":false},{"type":"event","name":"ApprovalForAll","inputs":[{"name":"owner","type":"address","indexed":true,"internalType":"address"},{"name":"operator","type":"address","indexed":true,"internalType":"address"},{"name":"approved","type":"bool","indexed":false,"internalType":"bool"}],"anonymous":false},{"type":"event","name":"NFTMinted","inputs":[{"name":"tokenId","type":"uint256","indexed":true,"internalType":"uint256"},{"name":"buyer","type":"address","indexed":true,"internalType":"address"},{"name":"price","type":"uint256","indexed":false,"internalType":"uint256"},{"name":"artistShare","type":"uint256","indexed":false,"internalType":"uint256"},{"name":"platformShare","type":"uint256","indexed":false,"internalType":"uint256"}],"anonymous":false},{"type":"event","name":"OwnershipTransferred","inputs":[{"name":"previousOwner","type":"address","indexed":true,"internalType":"address"},{"name":"newOwner","type":"address","indexed":true,"internalType":"address"}],"anonymous":false},{"type":"event","name":"Transfer","inputs":[{"name":"from","type":"address","indexed":true,"internalType":"address"},{"name":"to","type":"address","indexed":true,"internalType":"address"},{"name":"tokenId","type":"uint256","indexed":true,"internalType":"uint256"}],"anonymous":false},{"type":"error","name":"ERC721IncorrectOwner","inputs":[{"name":"sender","type":"address","internalType":"address"},{"name":"tokenId","type":"uint256","internalType":"uint256"},{"name":"owner","type":"address","internalType":"address"}]},{"type":"error","name":"ERC721InsufficientApproval","inputs":[{"name":"operator","type":"address","internalType":"address"},{"name":"tokenId","type":"uint256","internalType":"uint256"}]},{"type":"error","name":"ERC721InvalidApprover","inputs":[{"name":"approver","type":"address","internalType":"address"}]},{"type":"error","name":"ERC721InvalidOperator","inputs":[{"name":"operator","type":"address","internalType":"address"}]},{"type":"error","name":"ERC721InvalidOwner","inputs":[{"name":"owner","type":"address","internalType":"address"}]},{"type":"error","name":"ERC721InvalidReceiver","inputs":[{"name":"receiver","type":"address","internalType":"address"}]},{"type":"error","name":"ERC721InvalidSender","inputs":[{"name":"sender","type":"address","internalType":"address"}]},{"type":"error","name":"ERC721NonexistentToken","inputs":[{"name":"tokenId","type":"uint256","internalType":"uint256"}]},{"type":"error","name":"OwnableInvalidOwner","inputs":[{"name":"owner","type":"address","internalType":"address"}]},{"type":"error","name":"OwnableUnauthorizedAccount","inputs":[{"name":"account","type":"address","internalType":"address"}]}],"bytecode":{"object":"0x60c060405234801561000f575f5ffd5b50604051613574380380613574833981810160405281019061003191906103e7565b806040518060400160405280601881526020017f4d696e7420596f7572204d757369633a2047656e6573697300000000000000008152506040518060400160405280600481526020017f4d594d4700000000000000000000000000000000000000000000000000000000815250815f90816100ac9190610674565b5080600190816100bc9190610674565b5050505f73ffffffffffffffffffffffffffffffffffffffff168173ffffffffffffffffffffffffffffffffffffffff160361012f575f6040517f1e4fbdf70000000000000000000000000000000000000000000000000000000081526004016101269190610752565b60405180910390fd5b61013e8161028b60201b60201c565b505f73ffffffffffffffffffffffffffffffffffffffff168373ffffffffffffffffffffffffffffffffffffffff16036101ad576040517f08c379a00000000000000000000000000000000000000000000000000000000081526004016101a4906107c5565b60405180910390fd5b5f73ffffffffffffffffffffffffffffffffffffffff168273ffffffffffffffffffffffffffffffffffffffff160361021b576040517f08c379a000000000000000000000000000000000000000000000000000000000815260040161021290610853565b60405180910390fd5b8273ffffffffffffffffffffffffffffffffffffffff1660808173ffffffffffffffffffffffffffffffffffffffff16815250508173ffffffffffffffffffffffffffffffffffffffff1660a08173ffffffffffffffffffffffffffffffffffffffff1681525050505050610871565b5f60065f9054906101000a900473ffffffffffffffffffffffffffffffffffffffff1690508160065f6101000a81548173ffffffffffffffffffffffffffffffffffffffff021916908373ffffffffffffffffffffffffffffffffffffffff1602179055508173ffffffffffffffffffffffffffffffffffffffff168173ffffffffffffffffffffffffffffffffffffffff167f8be0079c531659141344cd1fd0a4f28419497f9722a3daafe3b4186f6b6457e060405160405180910390a35050565b5f5ffd5b5f73ffffffffffffffffffffffffffffffffffffffff82169050919050565b5f61037b82610352565b9050919050565b61038b81610371565b8114610395575f5ffd5b50565b5f815190506103a681610382565b92915050565b5f6103b682610352565b9050919050565b6103c6816103ac565b81146103d0575f5ffd5b50565b5f815190506103e1816103bd565b92915050565b5f5f5f606084860312156103fe576103fd61034e565b5b5f61040b86828701610398565b935050602061041c86828701610398565b925050604061042d868287016103d3565b9150509250925092565b5f81519050919050565b7f4e487b71000000000000000000000000000000000000000000000000000000005f52604160045260245ffd5b7f4e487b71000000000000000000000000000000000000000000000000000000005f52602260045260245ffd5b5f60028204905060018216806104b257607f821691505b6020821081036104c5576104c461046e565b5b50919050565b5f819050815f5260205f209050919050565b5f6020601f8301049050919050565b5f82821b905092915050565b5f600883026105277fffffffffffffffffffffffffffffffffffffffffffffffffffffffffffffffff826104ec565b61053186836104ec565b95508019841693508086168417925050509392505050565b5f819050919050565b5f819050919050565b5f61057561057061056b84610549565b610552565b610549565b9050919050565b5f819050919050565b61058e8361055b565b6105a261059a8261057c565b8484546104f8565b825550505050565b5f5f905090565b6105b96105aa565b6105c4818484610585565b505050565b5b818110156105e7576105dc5f826105b1565b6001810190506105ca565b5050565b601f82111561062c576105fd816104cb565b610606846104dd565b81016020851015610615578190505b610629610621856104dd565b8301826105c9565b50505b505050565b5f82821c905092915050565b5f61064c5f1984600802610631565b1980831691505092915050565b5f610664838361063d565b9150826002028217905092915050565b61067d82610437565b67ffffffffffffffff81111561069657610695610441565b5b6106a0825461049b565b6106ab8282856105eb565b5f60209050601f8311600181146106dc575f84156106ca578287015190505b6106d48582610659565b86555061073b565b601f1984166106ea866104cb565b5f5b82811015610711578489015182556001820191506020850194506020810190506106ec565b8683101561072e578489015161072a601f89168261063d565b8355505b6001600288020188555050505b505050505050565b61074c816103ac565b82525050565b5f6020820190506107655f830184610743565b92915050565b5f82825260208201905092915050565b7f446972656363696f6e2064656c206172746973746120696e76616c69646100005f82015250565b5f6107af601e8361076b565b91506107ba8261077b565b602082019050919050565b5f6020820190508181035f8301526107dc816107a3565b9050919050565b7f446972656363696f6e206465206c6120706c617461666f726d6120696e76616c5f8201527f6964610000000000000000000000000000000000000000000000000000000000602082015250565b5f61083d60238361076b565b9150610848826107e3565b604082019050919050565b5f6020820190508181035f83015261086a81610831565b9050919050565b60805160a051612cd46108a05f395f8181610cec01526111b401525f8181610b2b01526110e40152612cd45ff3fe608060405260043610610129575f3560e01c806370a08231116100aa578063a3342fba1161006e578063a3342fba146103bf578063b88d4fde146103e9578063c87b56dd14610411578063e985e9c51461044d578063f2fde38b14610489578063fa2af9da146104b157610129565b806370a08231146102f1578063715018a61461032d5780638da5cb5b1461034357806395d89b411461036d578063a22cb4651461039757610129565b806342842e0e116100f157806342842e0e1461021f57806355f804b3146102475780636352211e1461026f5780636c0360eb146102ab5780636ecd2306146102d557610129565b806301ffc9a71461012d57806306fdde0314610169578063081812fc14610193578063095ea7b3146101cf57806323b872dd146101f7575b5f5ffd5b348015610138575f5ffd5b50610153600480360381019061014e9190611e17565b6104db565b6040516101609190611e5c565b60405180910390f35b348015610174575f5ffd5b5061017d6105bc565b60405161018a9190611ee5565b60405180910390f35b34801561019e575f5ffd5b506101b960048036038101906101b49190611f38565b61064b565b6040516101c69190611fa2565b60405180910390f35b3480156101da575f5ffd5b506101f560048036038101906101f09190611fe5565b610666565b005b348015610202575f5ffd5b5061021d60048036038101906102189190612023565b61067c565b005b34801561022a575f5ffd5b5061024560048036038101906102409190612023565b61077b565b005b348015610252575f5ffd5b5061026d6004803603810190610268919061219f565b61079a565b005b34801561027a575f5ffd5b5061029560048036038101906102909190611f38565b6107b5565b6040516102a29190611fa2565b60405180910390f35b3480156102b6575f5ffd5b506102bf6107c6565b6040516102cc9190611ee5565b60405180910390f35b6102ef60048036038101906102ea919061221c565b610852565b005b3480156102fc575f5ffd5b5061031760048036038101906103129190612247565b610992565b6040516103249190612281565b60405180910390f35b348015610338575f5ffd5b50610341610a48565b005b34801561034e575f5ffd5b50610357610a5b565b6040516103649190611fa2565b60405180910390f35b348015610378575f5ffd5b50610381610a83565b60405161038e9190611ee5565b60405180910390f35b3480156103a2575f5ffd5b506103bd60048036038101906103b891906122c4565b610b13565b005b3480156103ca575f5ffd5b506103d3610b29565b6040516103e09190612322565b60405180910390f35b3480156103f4575f5ffd5b5061040f600480360381019061040a91906123d9565b610b4d565b005b34801561041c575f5ffd5b5061043760048036038101906104329190611f38565b610b72565b6040516104449190611ee5565b60405180910390f35b348015610458575f5ffd5b50610473600480360381019061046e9190612459565b610bd8565b6040516104809190611e5c565b60405180910390f35b348015610494575f5ffd5b506104af60048036038101906104aa9190612247565b610c66565b005b3480156104bc575f5ffd5b506104c5610cea565b6040516104d29190612322565b60405180910390f35b5f7f80ac58cd000000000000000000000000000000000000000000000000000000007bffffffffffffffffffffffffffffffffffffffffffffffffffffffff1916827bffffffffffffffffffffffffffffffffffffffffffffffffffffffff191614806105a557507f5b5e139f000000000000000000000000000000000000000000000000000000007bffffffffffffffffffffffffffffffffffffffffffffffffffffffff1916827bffffffffffffffffffffffffffffffffffffffffffffffffffffffff1916145b806105b557506105b482610d0e565b5b9050919050565b60605f80546105ca906124c4565b80601f01602080910402602001604051908101604052809291908181526020018280546105f6906124c4565b80156106415780601f1061061857610100808354040283529160200191610641565b820191905f5260205f20905b81548152906001019060200180831161062457829003601f168201915b5050505050905090565b5f61065582610d77565b5061065f82610dfd565b9050919050565b6106788282610673610e36565b610e3d565b5050565b5f73ffffffffffffffffffffffffffffffffffffffff168273ffffffffffffffffffffffffffffffffffffffff16036106ec575f6040517f64a0ae920000000000000000000000000000000000000000000000000000000081526004016106e39190611fa2565b60405180910390fd5b5f6106ff83836106fa610e36565b610e4f565b90508373ffffffffffffffffffffffffffffffffffffffff168173ffffffffffffffffffffffffffffffffffffffff1614610775578382826040517f64283d7b00000000000000000000000000000000000000000000000000000000815260040161076c939291906124f4565b60405180910390fd5b50505050565b61079583838360405180602001604052805f815250610b4d565b505050565b6107a261105a565b80600890816107b191906126c9565b5050565b5f6107bf82610d77565b9050919050565b600880546107d3906124c4565b80601f01602080910402602001604051908101604052809291908181526020018280546107ff906124c4565b801561084a5780601f106108215761010080835404028352916020019161084a565b820191905f5260205f20905b81548152906001019060200180831161082d57829003601f168201915b505050505081565b5f3411610894576040517f08c379a000000000000000000000000000000000000000000000000000000000815260040161088b906127e2565b60405180910390fd5b60648160ff1611156108db576040517f08c379a00000000000000000000000000000000000000000000000000000000081526004016108d290612870565b60405180910390fd5b5f60648260ff16346108ed91906128bb565b6108f79190612929565b90505f81346109069190612959565b905061091282826110e1565b5f600754905060075f81548092919061092a9061298c565b91905055506109393382611280565b3373ffffffffffffffffffffffffffffffffffffffff16817f19cc59039f8eb7ba436b5b291277e03e5209d6d8e48c1bdba4716897fc614b99348686604051610984939291906129d3565b60405180910390a350505050565b5f5f73ffffffffffffffffffffffffffffffffffffffff168273ffffffffffffffffffffffffffffffffffffffff1603610a03575f6040517f89c62b640000000000000000000000000000000000000000000000000000000081526004016109fa9190611fa2565b60405180910390fd5b60035f8373ffffffffffffffffffffffffffffffffffffffff1673ffffffffffffffffffffffffffffffffffffffff1681526020019081526020015f20549050919050565b610a5061105a565b610a595f61129d565b565b5f60065f9054906101000a900473ffffffffffffffffffffffffffffffffffffffff16905090565b606060018054610a92906124c4565b80601f0160208091040260200160405190810160405280929190818152602001828054610abe906124c4565b8015610b095780601f10610ae057610100808354040283529160200191610b09565b820191905f5260205f20905b815481529060010190602001808311610aec57829003601f168201915b5050505050905090565b610b25610b1e610e36565b8383611360565b5050565b7f000000000000000000000000000000000000000000000000000000000000000081565b610b5884848461067c565b610b6c610b63610e36565b858585856114c9565b50505050565b6060610b7d82610d77565b505f610b87611675565b90505f815111610ba55760405180602001604052805f815250610bd0565b80610baf84611705565b604051602001610bc0929190612a42565b6040516020818303038152906040525b915050919050565b5f60055f8473ffffffffffffffffffffffffffffffffffffffff1673ffffffffffffffffffffffffffffffffffffffff1681526020019081526020015f205f8373ffffffffffffffffffffffffffffffffffffffff1673ffffffffffffffffffffffffffffffffffffffff1681526020019081526020015f205f9054906101000a900460ff16905092915050565b610c6e61105a565b5f73ffffffffffffffffffffffffffffffffffffffff168173ffffffffffffffffffffffffffffffffffffffff1603610cde575f6040517f1e4fbdf7000000000000000000000000000000000000000000000000000000008152600401610cd59190611fa2565b60405180910390fd5b610ce78161129d565b50565b7f000000000000000000000000000000000000000000000000000000000000000081565b5f7f01ffc9a7000000000000000000000000000000000000000000000000000000007bffffffffffffffffffffffffffffffffffffffffffffffffffffffff1916827bffffffffffffffffffffffffffffffffffffffffffffffffffffffff1916149050919050565b5f5f610d82836117cf565b90505f73ffffffffffffffffffffffffffffffffffffffff168173ffffffffffffffffffffffffffffffffffffffff1603610df457826040517f7e273289000000000000000000000000000000000000000000000000000000008152600401610deb9190612281565b60405180910390fd5b80915050919050565b5f60045f8381526020019081526020015f205f9054906101000a900473ffffffffffffffffffffffffffffffffffffffff169050919050565b5f33905090565b610e4a8383836001611808565b505050565b5f5f610e5a846117cf565b90505f73ffffffffffffffffffffffffffffffffffffffff168373ffffffffffffffffffffffffffffffffffffffff1614610e9b57610e9a8184866119c7565b5b5f73ffffffffffffffffffffffffffffffffffffffff168173ffffffffffffffffffffffffffffffffffffffff1614610f2657610eda5f855f5f611808565b600160035f8373ffffffffffffffffffffffffffffffffffffffff1673ffffffffffffffffffffffffffffffffffffffff1681526020019081526020015f205f82825403925050819055505b5f73ffffffffffffffffffffffffffffffffffffffff168573ffffffffffffffffffffffffffffffffffffffff1614610fa557600160035f8773ffffffffffffffffffffffffffffffffffffffff1673ffffffffffffffffffffffffffffffffffffffff1681526020019081526020015f205f82825401925050819055505b8460025f8681526020019081526020015f205f6101000a81548173ffffffffffffffffffffffffffffffffffffffff021916908373ffffffffffffffffffffffffffffffffffffffff160217905550838573ffffffffffffffffffffffffffffffffffffffff168273ffffffffffffffffffffffffffffffffffffffff167fddf252ad1be2c89b69c2b068fc378daa952ba7f163c4a11628f55a4df523b3ef60405160405180910390a4809150509392505050565b611062610e36565b73ffffffffffffffffffffffffffffffffffffffff16611080610a5b565b73ffffffffffffffffffffffffffffffffffffffff16146110df576110a3610e36565b6040517f118cdaa70000000000000000000000000000000000000000000000000000000081526004016110d69190611fa2565b60405180910390fd5b565b5f7f000000000000000000000000000000000000000000000000000000000000000073ffffffffffffffffffffffffffffffffffffffff168360405161112690612a92565b5f6040518083038185875af1925050503d805f8114611160576040519150601f19603f3d011682016040523d82523d5f602084013e611165565b606091505b50509050806111a9576040517f08c379a00000000000000000000000000000000000000000000000000000000081526004016111a090612af0565b60405180910390fd5b5f82111561127b575f7f000000000000000000000000000000000000000000000000000000000000000073ffffffffffffffffffffffffffffffffffffffff16836040516111f690612a92565b5f6040518083038185875af1925050503d805f8114611230576040519150601f19603f3d011682016040523d82523d5f602084013e611235565b606091505b5050905080611279576040517f08c379a000000000000000000000000000000000000000000000000000000000815260040161127090612b7e565b60405180910390fd5b505b505050565b611299828260405180602001604052805f815250611a8a565b5050565b5f60065f9054906101000a900473ffffffffffffffffffffffffffffffffffffffff1690508160065f6101000a81548173ffffffffffffffffffffffffffffffffffffffff021916908373ffffffffffffffffffffffffffffffffffffffff1602179055508173ffffffffffffffffffffffffffffffffffffffff168173ffffffffffffffffffffffffffffffffffffffff167f8be0079c531659141344cd1fd0a4f28419497f9722a3daafe3b4186f6b6457e060405160405180910390a35050565b5f73ffffffffffffffffffffffffffffffffffffffff168273ffffffffffffffffffffffffffffffffffffffff16036113d057816040517f5b08ba180000000000000000000000000000000000000000000000000000000081526004016113c79190611fa2565b60405180910390fd5b8060055f8573ffffffffffffffffffffffffffffffffffffffff1673ffffffffffffffffffffffffffffffffffffffff1681526020019081526020015f205f8473ffffffffffffffffffffffffffffffffffffffff1673ffffffffffffffffffffffffffffffffffffffff1681526020019081526020015f205f6101000a81548160ff0219169083151502179055508173ffffffffffffffffffffffffffffffffffffffff168373ffffffffffffffffffffffffffffffffffffffff167f17307eab39ab6107e8899845ad3d59bd9653f200f220920489ca2b5937696c31836040516114bc9190611e5c565b60405180910390a3505050565b5f8373ffffffffffffffffffffffffffffffffffffffff163b111561166e578273ffffffffffffffffffffffffffffffffffffffff1663150b7a02868685856040518563ffffffff1660e01b81526004016115279493929190612bee565b6020604051808303815f875af192505050801561156257506040513d601f19601f8201168201806040525081019061155f9190612c4c565b60015b6115e3573d805f8114611590576040519150601f19603f3d011682016040523d82523d5f602084013e611595565b606091505b505f8151036115db57836040517f64a0ae920000000000000000000000000000000000000000000000000000000081526004016115d29190611fa2565b60405180910390fd5b805160208201fd5b63150b7a0260e01b7bffffffffffffffffffffffffffffffffffffffffffffffffffffffff1916817bffffffffffffffffffffffffffffffffffffffffffffffffffffffff19161461166c57836040517f64a0ae920000000000000000000000000000000000000000000000000000000081526004016116639190611fa2565b60405180910390fd5b505b5050505050565b606060088054611684906124c4565b80601f01602080910402602001604051908101604052809291908181526020018280546116b0906124c4565b80156116fb5780601f106116d2576101008083540402835291602001916116fb565b820191905f5260205f20905b8154815290600101906020018083116116de57829003601f168201915b5050505050905090565b60605f600161171384611aad565b0190505f8167ffffffffffffffff8111156117315761173061207b565b5b6040519080825280601f01601f1916602001820160405280156117635781602001600182028036833780820191505090505b5090505f82602083010190505b6001156117c4578080600190039150507f3031323334353637383961626364656600000000000000000000000000000000600a86061a8153600a85816117b9576117b86128fc565b5b0494505f8503611770575b819350505050919050565b5f60025f8381526020019081526020015f205f9054906101000a900473ffffffffffffffffffffffffffffffffffffffff169050919050565b808061184057505f73ffffffffffffffffffffffffffffffffffffffff168273ffffffffffffffffffffffffffffffffffffffff1614155b15611972575f61184f84610d77565b90505f73ffffffffffffffffffffffffffffffffffffffff168373ffffffffffffffffffffffffffffffffffffffff16141580156118b957508273ffffffffffffffffffffffffffffffffffffffff168173ffffffffffffffffffffffffffffffffffffffff1614155b80156118cc57506118ca8184610bd8565b155b1561190e57826040517fa9fbf51f0000000000000000000000000000000000000000000000000000000081526004016119059190611fa2565b60405180910390fd5b811561197057838573ffffffffffffffffffffffffffffffffffffffff168273ffffffffffffffffffffffffffffffffffffffff167f8c5be1e5ebec7d5bd14f71427d1e84f3dd0314c0f7b2291e5b200ac8c7c3b92560405160405180910390a45b505b8360045f8581526020019081526020015f205f6101000a81548173ffffffffffffffffffffffffffffffffffffffff021916908373ffffffffffffffffffffffffffffffffffffffff16021790555050505050565b6119d2838383611bfe565b611a85575f73ffffffffffffffffffffffffffffffffffffffff168373ffffffffffffffffffffffffffffffffffffffff1603611a4657806040517f7e273289000000000000000000000000000000000000000000000000000000008152600401611a3d9190612281565b60405180910390fd5b81816040517f177e802f000000000000000000000000000000000000000000000000000000008152600401611a7c929190612c77565b60405180910390fd5b505050565b611a948383611cbe565b611aa8611a9f610e36565b5f8585856114c9565b505050565b5f5f5f90507a184f03e93ff9f4daa797ed6e38ed64bf6a1f0100000000000000008310611b09577a184f03e93ff9f4daa797ed6e38ed64bf6a1f0100000000000000008381611aff57611afe6128fc565b5b0492506040810190505b6d04ee2d6d415b85acef81000000008310611b46576d04ee2d6d415b85acef81000000008381611b3c57611b3b6128fc565b5b0492506020810190505b662386f26fc100008310611b7557662386f26fc100008381611b6b57611b6a6128fc565b5b0492506010810190505b6305f5e1008310611b9e576305f5e1008381611b9457611b936128fc565b5b0492506008810190505b6127108310611bc3576127108381611bb957611bb86128fc565b5b0492506004810190505b60648310611be65760648381611bdc57611bdb6128fc565b5b0492506002810190505b600a8310611bf5576001810190505b80915050919050565b5f5f73ffffffffffffffffffffffffffffffffffffffff168373ffffffffffffffffffffffffffffffffffffffff1614158015611cb557508273ffffffffffffffffffffffffffffffffffffffff168473ffffffffffffffffffffffffffffffffffffffff161480611c765750611c758484610bd8565b5b80611cb457508273ffffffffffffffffffffffffffffffffffffffff16611c9c83610dfd565b73ffffffffffffffffffffffffffffffffffffffff16145b5b90509392505050565b5f73ffffffffffffffffffffffffffffffffffffffff168273ffffffffffffffffffffffffffffffffffffffff1603611d2e575f6040517f64a0ae92000000000000000000000000000000000000000000000000000000008152600401611d259190611fa2565b60405180910390fd5b5f611d3a83835f610e4f565b90505f73ffffffffffffffffffffffffffffffffffffffff168173ffffffffffffffffffffffffffffffffffffffff1614611dac575f6040517f73c6ac6e000000000000000000000000000000000000000000000000000000008152600401611da39190611fa2565b60405180910390fd5b505050565b5f604051905090565b5f5ffd5b5f5ffd5b5f7fffffffff0000000000000000000000000000000000000000000000000000000082169050919050565b611df681611dc2565b8114611e00575f5ffd5b50565b5f81359050611e1181611ded565b92915050565b5f60208284031215611e2c57611e2b611dba565b5b5f611e3984828501611e03565b91505092915050565b5f8115159050919050565b611e5681611e42565b82525050565b5f602082019050611e6f5f830184611e4d565b92915050565b5f81519050919050565b5f82825260208201905092915050565b8281835e5f83830152505050565b5f601f19601f8301169050919050565b5f611eb782611e75565b611ec18185611e7f565b9350611ed1818560208601611e8f565b611eda81611e9d565b840191505092915050565b5f6020820190508181035f830152611efd8184611ead565b905092915050565b5f819050919050565b611f1781611f05565b8114611f21575f5ffd5b50565b5f81359050611f3281611f0e565b92915050565b5f60208284031215611f4d57611f4c611dba565b5b5f611f5a84828501611f24565b91505092915050565b5f73ffffffffffffffffffffffffffffffffffffffff82169050919050565b5f611f8c82611f63565b9050919050565b611f9c81611f82565b82525050565b5f602082019050611fb55f830184611f93565b92915050565b611fc481611f82565b8114611fce575f5ffd5b50565b5f81359050611fdf81611fbb565b92915050565b5f5f60408385031215611ffb57611ffa611dba565b5b5f61200885828601611fd1565b925050602061201985828601611f24565b9150509250929050565b5f5f5f6060848603121561203a57612039611dba565b5b5f61204786828701611fd1565b935050602061205886828701611fd1565b925050604061206986828701611f24565b9150509250925092565b5f5ffd5b5f5ffd5b7f4e487b71000000000000000000000000000000000000000000000000000000005f52604160045260245ffd5b6120b182611e9d565b810181811067ffffffffffffffff821117156120d0576120cf61207b565b5b80604052505050565b5f6120e2611db1565b90506120ee82826120a8565b919050565b5f67ffffffffffffffff82111561210d5761210c61207b565b5b61211682611e9d565b9050602081019050919050565b828183375f83830152505050565b5f61214361213e846120f3565b6120d9565b90508281526020810184848401111561215f5761215e612077565b5b61216a848285612123565b509392505050565b5f82601f83011261218657612185612073565b5b8135612196848260208601612131565b91505092915050565b5f602082840312156121b4576121b3611dba565b5b5f82013567ffffffffffffffff8111156121d1576121d0611dbe565b5b6121dd84828501612172565b91505092915050565b5f60ff82169050919050565b6121fb816121e6565b8114612205575f5ffd5b50565b5f81359050612216816121f2565b92915050565b5f6020828403121561223157612230611dba565b5b5f61223e84828501612208565b91505092915050565b5f6020828403121561225c5761225b611dba565b5b5f61226984828501611fd1565b91505092915050565b61227b81611f05565b82525050565b5f6020820190506122945f830184612272565b92915050565b6122a381611e42565b81146122ad575f5ffd5b50565b5f813590506122be8161229a565b92915050565b5f5f604083850312156122da576122d9611dba565b5b5f6122e785828601611fd1565b92505060206122f8858286016122b0565b9150509250929050565b5f61230c82611f63565b9050919050565b61231c81612302565b82525050565b5f6020820190506123355f830184612313565b92915050565b5f67ffffffffffffffff8211156123555761235461207b565b5b61235e82611e9d565b9050602081019050919050565b5f61237d6123788461233b565b6120d9565b90508281526020810184848401111561239957612398612077565b5b6123a4848285612123565b509392505050565b5f82601f8301126123c0576123bf612073565b5b81356123d084826020860161236b565b91505092915050565b5f5f5f5f608085870312156123f1576123f0611dba565b5b5f6123fe87828801611fd1565b945050602061240f87828801611fd1565b935050604061242087828801611f24565b925050606085013567ffffffffffffffff81111561244157612440611dbe565b5b61244d878288016123ac565b91505092959194509250565b5f5f6040838503121561246f5761246e611dba565b5b5f61247c85828601611fd1565b925050602061248d85828601611fd1565b9150509250929050565b7f4e487b71000000000000000000000000000000000000000000000000000000005f52602260045260245ffd5b5f60028204905060018216806124db57607f821691505b6020821081036124ee576124ed612497565b5b50919050565b5f6060820190506125075f830186611f93565b6125146020830185612272565b6125216040830184611f93565b949350505050565b5f819050815f5260205f209050919050565b5f6020601f8301049050919050565b5f82821b905092915050565b5f600883026125857fffffffffffffffffffffffffffffffffffffffffffffffffffffffffffffffff8261254a565b61258f868361254a565b95508019841693508086168417925050509392505050565b5f819050919050565b5f6125ca6125c56125c084611f05565b6125a7565b611f05565b9050919050565b5f819050919050565b6125e3836125b0565b6125f76125ef826125d1565b848454612556565b825550505050565b5f5f905090565b61260e6125ff565b6126198184846125da565b505050565b5b8181101561263c576126315f82612606565b60018101905061261f565b5050565b601f8211156126815761265281612529565b61265b8461253b565b8101602085101561266a578190505b61267e6126768561253b565b83018261261e565b50505b505050565b5f82821c905092915050565b5f6126a15f1984600802612686565b1980831691505092915050565b5f6126b98383612692565b9150826002028217905092915050565b6126d282611e75565b67ffffffffffffffff8111156126eb576126ea61207b565b5b6126f582546124c4565b612700828285612640565b5f60209050601f831160018114612731575f841561271f578287015190505b61272985826126ae565b865550612790565b601f19841661273f86612529565b5f5b8281101561276657848901518255600182019150602085019450602081019050612741565b86831015612783578489015161277f601f891682612692565b8355505b6001600288020188555050505b505050505050565b7f456c207061676f206465626520736572206d61796f7220717565206365726f005f82015250565b5f6127cc601f83611e7f565b91506127d782612798565b602082019050919050565b5f6020820190508181035f8301526127f9816127c0565b9050919050565b7f456c20706f7263656e74616a65206e6f207075656465206578636564657220315f8201527f3030000000000000000000000000000000000000000000000000000000000000602082015250565b5f61285a602283611e7f565b915061286582612800565b604082019050919050565b5f6020820190508181035f8301526128878161284e565b9050919050565b7f4e487b71000000000000000000000000000000000000000000000000000000005f52601160045260245ffd5b5f6128c582611f05565b91506128d083611f05565b92508282026128de81611f05565b915082820484148315176128f5576128f461288e565b5b5092915050565b7f4e487b71000000000000000000000000000000000000000000000000000000005f52601260045260245ffd5b5f61293382611f05565b915061293e83611f05565b92508261294e5761294d6128fc565b5b828204905092915050565b5f61296382611f05565b915061296e83611f05565b92508282039050818111156129865761298561288e565b5b92915050565b5f61299682611f05565b91507fffffffffffffffffffffffffffffffffffffffffffffffffffffffffffffffff82036129c8576129c761288e565b5b600182019050919050565b5f6060820190506129e65f830186612272565b6129f36020830185612272565b612a006040830184612272565b949350505050565b5f81905092915050565b5f612a1c82611e75565b612a268185612a08565b9350612a36818560208601611e8f565b80840191505092915050565b5f612a4d8285612a12565b9150612a598284612a12565b91508190509392505050565b5f81905092915050565b50565b5f612a7d5f83612a65565b9150612a8882612a6f565b5f82019050919050565b5f612a9c82612a72565b9150819050919050565b7f46616c6c6f20616c207472616e73666572697220616c206172746973746100005f82015250565b5f612ada601e83611e7f565b9150612ae582612aa6565b602082019050919050565b5f6020820190508181035f830152612b0781612ace565b9050919050565b7f46616c6c6f20616c207472616e7366657269722061206c6120706c617461666f5f8201527f726d610000000000000000000000000000000000000000000000000000000000602082015250565b5f612b68602383611e7f565b9150612b7382612b0e565b604082019050919050565b5f6020820190508181035f830152612b9581612b5c565b9050919050565b5f81519050919050565b5f82825260208201905092915050565b5f612bc082612b9c565b612bca8185612ba6565b9350612bda818560208601611e8f565b612be381611e9d565b840191505092915050565b5f608082019050612c015f830187611f93565b612c0e6020830186611f93565b612c1b6040830185612272565b8181036060830152612c2d8184612bb6565b905095945050505050565b5f81519050612c4681611ded565b92915050565b5f60208284031215612c6157612c60611dba565b5b5f612c6e84828501612c38565b91505092915050565b5f604082019050612c8a5f830185611f93565b612c976020830184612272565b939250505056fea2646970667358221220e261d19dc19c4f945d0aca22630835726c0018b10cc059bf0f5d9900c3fb21e064736f6c634300081e0033","linkReferences":{}},"methodIdentifiers":{"approve(address,uint256)":"095ea7b3","artistWallet()":"a3342fba","balanceOf(address)":"70a08231","baseURI()":"6c0360eb","getApproved(uint256)":"081812fc","isApprovedForAll(address,address)":"e985e9c5","mint(uint8)":"6ecd2306","name()":"06fdde03","owner()":"8da5cb5b","ownerOf(uint256)":"6352211e","platformWallet()":"fa2af9da","renounceOwnership()":"715018a6","safeTransferFrom(address,address,uint256)":"42842e0e","safeTransferFrom(address,address,uint256,bytes)":"b88d4fde","setApprovalForAll(address,bool)":"a22cb465","setBaseURI(string)":"55f804b3","supportsInterface(bytes4)":"01ffc9a7","symbol()":"95d89b41","tokenURI(uint256)":"c87b56dd","transferFrom(address,address,uint256)":"23b872dd","transferOwnership(address)":"f2fde38b"},"id":15}